:020000040800F2
:1000000000500020E1100008690D00086B0D000889
:1000100000000000000000000000000000000000E0
:10002000000000000000000000000000E55700088C
:100030000000000000000000B1580008F55800085A
:100040003111000831110008311100083111000888
:100050003111000831110008311100083111000878
:1000600031110008311100086D0D0008850D0008E0
:100070003111000831110008311100083111000858
:10008000311100089D0D000831110008000000002A
:100090003111000831110008311100083111000838
:1000A0003111000831110008311100083111000828
:1000B000AD0D0008311100083111000831110008A0
:1000C00002780B78002A03D0013001319A42F7D030
:1000D000D01A70470023C25C0133002AFBD1581E9E
:1000E0007047000002B471464908490009564900AA
:1000F0008E4402BC7047C04602B4714649084900AC
:10010000095C49008E4402BC7047C04603B4714686
:10011000490840004900095E49008E4403BC70470D
:10012000002243088B4274D303098B425FD3030A36
:100130008B4244D3030B8B4228D3030C8B420DD349
:10014000FF22090212BA030C8B4202D312120902D7
:1001500065D0030B8B4219D300E0090AC30B8B4215
:1001600001D3CB03C01A5241830B8B4201D38B03C3
:10017000C01A5241430B8B4201D34B03C01A524168
:10018000030B8B4201D30B03C01A5241C30A8B42AB
:1001900001D3CB02C01A5241830A8B4201D38B0296
:1001A000C01A5241430A8B4201D34B02C01A52413A
:1001B000030A8B4201D30B02C01A5241CDD2C309AC
:1001C0008B4201D3CB01C01A524183098B4201D328
:1001D0008B01C01A524143098B4201D34B01C01A13
:1001E000524103098B4201D30B01C01A5241C3088B
:1001F0008B4201D3CB00C01A524183088B4201D3FA
:100200008B00C01A524143088B4201D34B00C01AE5
:100210005241411A00D20146524110467047FFE751
:1002200001B5002000F0F0F802BDC0460029F7D06B
:1002300076E7704703460B437FD4002243088B4286
:1002400074D303098B425FD3030A8B4244D3030B5D
:100250008B4228D3030C8B420DD3FF22090212BA22
:10026000030C8B4202D31212090265D0030B8B429E
:1002700019D300E0090AC30B8B4201D3CB03C01A88
:100280005241830B8B4201D38B03C01A5241430B63
:100290008B4201D34B03C01A5241030B8B4201D353
:1002A0000B03C01A5241C30A8B4201D3CB02C01ABE
:1002B0005241830A8B4201D38B02C01A5241430A36
:1002C0008B4201D34B02C01A5241030A8B4201D325
:1002D0000B02C01A5241CDD2C3098B4201D3CB01CC
:1002E000C01A524183098B4201D38B01C01A52417B
:1002F00043098B4201D34B01C01A524103098B427F
:1003000001D30B01C01A5241C3088B4201D3CB0069
:10031000C01A524183088B4201D38B00C01A52414C
:1003200043088B4201D34B00C01A5241411A00D2FC
:1003300001465241104670475DE0CA0F00D0494265
:10034000031000D34042534000229C4603098B42D5
:100350002DD3030A8B4212D3FC22890112BA030A5D
:100360008B420CD3890192118B4208D389019211DF
:100370008B4204D389013AD0921100E08909C30964
:100380008B4201D3CB01C01A524183098B4201D366
:100390008B01C01A524143098B4201D34B01C01A51
:1003A000524103098B4201D30B01C01A5241C308C9
:1003B0008B4201D3CB00C01A524183088B4201D338
:1003C0008B00C01A5241D9D243088B4201D34B0053
:1003D000C01A5241411A00D20146634652415B1095
:1003E000104601D34042002B00D549427047634676
:1003F0005B1000D3404201B5002000F005F802BDBB
:100400000029F8D016E770477047C04684461000B0
:1004100062468C461900634600E0C0461FB50BF0EB
:10042000B3F8002801D40021C8421FBD10B50AF05E
:10043000F7FF4042013010BD10B50BF0A5F80028C1
:1004400001DB002010BD012010BDC04610B50BF02F
:100450009BF8002801DD002010BD012010BDC04622
:1004600010B50BF021F8002801DC002010BD0120A0
:1004700010BDC04610B50BF017F8002801DA0020B7
:1004800010BD012010BDC046002B11D1002A0FD194
:10049000002900D1002802D00021C943080007B478
:1004A000024802A14018029003BDC0465DFFFFFF55
:1004B00003B4684601B502980AF04CF8019B9E46C9
:1004C00002B00CBC7047C0461C2101231B0498429B
:1004D00001D3000C10391B0A984201D3000A0839D5
:1004E0001B09984201D30009043902A2105C40188C
:1004F0007047C04604030202010101010000000030
:100500000000000010B5002903D1FFF7DDFF203007
:1005100002E00800FFF7D8FF10BDC0460448054BB5
:1005200010B5834203D0044B002B00D0984710BD78
:10053000FC010020FC0100200000000006480749E3
:10054000091A8B10C90FC91810B5491003D0044BF4
:10055000002B00D0984710BDFC010020FC010020BA
:100560000000000010B5074C2378002B09D1FFF7DD
:10057000D5FF054B002B02D0044800E000BF01234B
:10058000237010BDFC0100200000000078C50008A9
:10059000054B10B5002B03D00449054800E000BF0F
:1005A000FFF7CCFF10BDC046000000000002002095
:1005B00078C50008084810B5816000F0A5FC002847
:1005C00008D0064C206803F037FB002802D12068D1
:1005D00003F002FB10BDC0462402002018020020D8
:1005E00010B5054C206803F027FB002802D12068D5
:1005F00003F0F2FA10BDC0461C02002010B5054CF5
:100600000549200002F0BAF901212000034A02F056
:100610007CF910BDF0030020B5050008E1050008D5
:10062000022110B50A4AFF310F2003F01FFB012100
:10063000084B094A1860080003F042FA074B0021F2
:100640001860074A012003F03BFA064B186010BD02
:10065000D0C8000820020020C0C800081C020020EA
:10066000B0C8000818020020F8B501278022012632
:100670000E490F4802F087FE3D0076420D4B3100D7
:10068000186803F073FA0C4B7C1CDA692C40944216
:10069000F4D09869094B60430949C018FFF710FD71
:1006A000002801D100F0A2FD2700ECE7CC020020D9
:1006B000F003002018020020240200204C02002039
:1006C000AAC50008FA2370B5184CC2B09B001922C5
:1006D0001749200002F0FEFC03F0E8F803F0EAF806
:1006E0001449020001A806F0ABF96B461D1DFF3549
:1006F000687082B2C8232000012601A902F0EAFC3A
:1007000076420D4B3100186803F030FA021EF8D122
:100710000A483300006801A903F028FB0028F0D143
:1007200020006A7801A902F03BF9EAE7F003002013
:10073000B5C50008D0C500081C020020200200201A
:100740000EB417B58021040005AB04CB490001931A
:1007500007F0C8F82300FF335870002304481A003C
:100760002100006803F0C6FA17BC08BC03B01847A4
:1007700020020020074B30B51900074A103331CA58
:1007800031C112680A60054A13CA13C303CA03C3FE
:1007900030BDC046240200201400002000000020CC
:1007A00030B59FB03422002111A805F08DFC142231
:1007B000002101A805F088FC2822002106A805F0E8
:1007C00083FC1849184B0A6802241A4080231B0135
:1007D00013430B60102301251493002310A81094D9
:1007E00013951A9300F028FF011E01D072B6FEE7A0
:1007F0000F2303900490059001A80193029501F046
:10080000A5F9002801D072B6FEE7082306A80694D1
:100810000A9301F0A9FA002801D072B6FEE71FB0D2
:1008200030BDC04600700040FFE7FFFFF0B58BB061
:1008300000F080FCFFF7B4FF1422002105A805F0AA
:1008400043FC0422802701265F4D3900EB6A5F4894
:100850001343EB62EB6A002413400193019BEB6AA4
:10086000023A3B43EB62EB6A3B400293029BEB6A2A
:100870003343EB62EB6A33400393039BEB6A13430E
:10088000EB62EB6A134004930022049B00F08CFEA1
:10089000002260214E4800F087FE80239B010593D3
:1008A00084234A489B0305A90693079400F0BCFDE6
:1008B000464805A9059706960794089400F0B4FDEC
:1008C0008023A020DB0005A9C005059306940794AA
:1008D00000F0AAFD60233E4805A9059306960794FB
:1008E000089400F0A1FD2B6B220033432B632B6B8C
:1008F000032133400A200593059B00F041FC0A20A8
:1009000000F068FC220003210B2000F039FC0B20D2
:1009100000F060FC2F48304B84600360E1235B02F1
:1009200043600C23C460436104618461C461046258
:10093000446202F095FC0300A04201D072B6FEE7CB
:100940002648274A836002608222C36003614361B4
:10095000C361036243628362072352004260FC3238
:100960008261C36201F0F2FB041E01D072B6FEE7A1
:10097000FFF744FE02F0F0FE21001A4A1A4802F086
:1009800039FF1A4B21001860194A1A4802F032FF49
:10099000194B21001860194A194802F02BFF194B16
:1009A0002100194A1860194802F024FF184B1860FA
:1009B00000F06CFAFFF734FE164802F0C9FF164B40
:1009C000186002F0E3FEFEE700100240000800504D
:1009D00000040050F00300200044004038050020CF
:1009E0000030014064C90008710A00085C0300205F
:1009F00040C90008C5060008580300201CC90008AB
:100A00006906000854030020E8C80008A90E000881
:100A10004C0300200CC9000850030020044B10B503
:100A2000834204D1034B0121186802F0B3FF10BDCB
:100A3000380500205003002010B5FFF7EFFF10BD70
:100A400010B5FFF7EBFF10BD10B5FFF7E7FF10BDC6
:100A500010B5FFF7E3FF10BD034B026810B59A42D3
:100A600001D100F07BFB10BD0010004072B6FEE724
:100A7000F0B5DDB002F0A8FE072704002000F53035
:100A8000FF3002F045FF02F09FFE184B0400069372
:100A9000174B29200793174B19220893164B174918
:100AA0000993142304930E3B0293013B0193013BF2
:100AB000009303970733684405F0C2FF2E23104DBF
:100AC00006AE2868337403F08BF9002802D028683A
:100AD00003F08AF931000A230022286803F00AF99A
:100AE00008491BA8FFF72CFEC8E7C046E803066CC0
:100AF000D204393004000300020101015BC6000882
:100B0000FC0500207EC600080122084B10B5596B79
:100B100002200A435A638022996B52050A439A6362
:100B200003210022404200F02BFB10BD00100240C8
:100B300070B5050086B01422002101A805F0C4FAA2
:100B4000264B2A689A4246D180220126244B520124
:100B5000596BA0200A435A63DA6AC0053243DA624D
:100B6000DB6A01A933400093009BE0230193DE3B45
:100B700002939B19049300F057FC1A4C1A4B8022E5
:100B80002360002320006660A360E360226163614C
:100B9000A361E361236200F037FB002801D0FFF777
:100BA00065FF124BEC64A562114C80222360012387
:100BB00063600F33A36000232000E3602261636160
:100BC000A361E361236200F01FFB002801D0FFF75F
:100BD0004DFFAC64A56206B070BDC0460030014058
:100BE00000100240F00400201C00024030000240CF
:100BF000A804002070B5050086B01422002101A8C9
:100C000005F062FA2B4B2A689A4251D180222A4B76
:100C10009202996BA0200A4301219A63DA6A0426A2
:100C20000A43DA62DB6AC0050B400093009B0C2389
:100C300001930A3B02935B1801A90493059600F007
:100C4000F3FB1E4C1E4B802223601023A360002365
:100C500020006660E36022616361A361E361236257
:100C600000F0D2FA002801D0FFF700FF154B2C67E7
:100C7000A562154C80222360042363600023226157
:100C80002000603AA360E3606361A361E2612362D4
:100C900000F0BAFA002801D0FFF7E8FE1C2000227D
:100CA00003216C67A56200F06BFA1C2000F092FA39
:100CB00006B070BD0044004000100240A8030020B0
:100CC00044000240580002406003002070B501005B
:100CD00086B000220500112000F052FA112000F029
:100CE00079FA10231A4A01A8916B0B439363694662
:100CF00001F01AF8049B002B24D100F0F5FF154EEB
:100D0000154B16493360164BF360FFF709FA0023C1
:100D10000138706030003361B36001F0F0FB041EF5
:100D20000DD1300001F010FC041E08D1032D0DD8A8
:100D300002002900112000F023FA0A4B1D60200058
:100D400006B070BD00F0D0FF4000D8E70124F6E700
:100D500000100240B80500200010004040420F0083
:100D6000E70300002C000020FEE7FEE710B5034873
:100D700000F00FFB024800F00CFB10BDF004002057
:100D8000A804002010B5034800F003FB024800F05F
:100D900000FB10BDA80300206003002010B502482E
:100DA00001F006FC10BDC046B805002010B5024891
:100DB00001F044FE10BDC046F00300200120704742
:100DC00010B504F073FE162303600120404210BDED
:100DD00010B504F06BFE16230360FEE770B50E003D
:100DE00014000025A54201DB200070BD00E000BF1B
:100DF00070550135F6E770B50E0014000025A542C8
:100E000001DB200070BD705D00E000BF0135F6E73A
:100E100001204042704780239B0100204B607047B7
:100E200001207047002070470B490C4A0300521AFA
:100E30000B4910B50868002801D10A480860086805
:100E4000C318934206D904F031FE0C23036001203D
:100E5000404210BD0B60FCE7000400000050002081
:100E6000F8050020383C0020704710B502F02CFB3C
:100E700002F068FC0A2002F033FD02F02FFB10BDE7
:100E800010B502F021FB02F05DFC10BD10B552213F
:100E90000120034A02F0EAFE024B186010BDC04672
:100EA000ACC90008FC05002030B5D9B0FFF7E8FF59
:100EB00000240125104917A8FFF742FC0F48002223
:100EC0000F4B006802A902F051FF002805D0002C4A
:100ED00001D0FFF7D5FF0024ECE7002C01D1FFF78C
:100EE000C4FF084B00210093F02308001A0002F011
:100EF00003FC2C00DEE7C04686C60008FC05002087
:100F000010270000C4C90008F0B5826846680400D4
:100F100085B00020964250D06369E5690293A369C9
:100F20000193236A3DD32288B24200D96EE00026A5
:100F3000A268B24238D90199E2686943975D226993
:100F4000581C5218D754631D9C46DB7F002B00D0E1
:100F50009EE023695B181B18013B1B780D3B5A422E
:100F60005341DBB2621DD37703000136E0E70199FC
:100F7000E2686943975D2269581C5218D754631D73
:100F80009C46DB7F002B1AD123695B181B18013BA1
:100F90001B780D3B5A425341DBB2621DD3770300ED
:100FA0000136A268B242E2D80120A268E56162601F
:100FB000029A23626261019AA26105B0F0BD012B21
:100FC00020D1236909184F1E0393DB5D1A0000230B
:100FD0000A2AE2D162460220D077039A5218023AD6
:100FE00013702269D355029A013AAA420CD11D000E
:100FF000019B20696B430021019AC01805F064F839
:101000000020CCE70023C8E70135F1E70199E26849
:101010006943975D2269581C5218D754631D9C463A
:10102000DB7F002B0DD123695B181B18013B1B785C
:101030000D3B5A425341DBB2621DD37703000136A8
:1010400071E7012B20D1236909184F1E0393DB5D43
:101050001A0000230A2AEFD162460220D077039AB1
:101060005218023A13702269D355029A013AAA42E1
:101070000CD11D00019B20696B430021019AC0180F
:1010800005F022F80020D9E70023D5E70135F1E784
:10109000012B21D1236909184F1E0393DB5D1A0030
:1010A00000230A2A00D05DE762460220D077039A27
:1010B0005218023A13702269D355029A013AAA4291
:1010C0000CD11D00019B20696B430021019AC018BF
:1010D00004F0FAFF002047E7002343E70135F1E77A
:1010E0000D488546FFF7C0FE0C480D490D4A002308
:1010F00002E0D458C4500433C4188C42F9D30A4ACD
:101100000A4C002301E013600432A242FBD304F036
:10111000D3FCFFF78BFBFEE700500020000000200F
:10112000FC010020708E0208FC010020343C0020ED
:10113000FEE700004023084A10B5116803200B4366
:101140001360FFF7C3FD041E03D1FFF7DDFC200091
:1011500010BD0124FBE7C04600200240034A044BB7
:1011600011681B785B1813607047C04600060020AA
:1011700028000020014B18687047C0460006002078
:1011800010B5FF2403220B0021000240D200914041
:101190009B012340C943934000280ADBC0240B4A2B
:1011A000800880008018A40002590A4013430351AC
:1011B00010BD0F2210400838054A800880008018B2
:1011C000C26911401943C161F2E7C04600E100E085
:1011D00000ED00E0002805DB1F2318401E3B834084
:1011E000014A13607047C04600E100E0BFF34F8F33
:1011F000034B044ADA60BFF34F8FC046FDE7C04699
:1012000000ED00E00400FA05F8B504000120002C10
:1012100035D025681A4B1421E818FEF781FF194BC9
:10122000800023640223A21D6064D3772E68164BCE
:10123000A1681E40E36827690B433B4367693B4352
:10124000A7693B43E7693B43276A3B4333432B6032
:101250008023DB0199420CD01C2528400D3D8540A0
:101260000A490B68AB430B6063680D6883402B43EE
:101270000B6000200123E0630534D377E077F8BDED
:10128000F8FFFDBF000002400F80FFFFA8000240F2
:10129000F7B5441D0193E57F012D35D00125871D4C
:1012A000E577FD7F0026AC466346EDB2012B2AD1DF
:1012B0000224FC770468C66326681B33AE432660AD
:1012C000466C076C1E40B540019B7D60636083687F
:1012D000102B0ED1A260E160036B002B0CD00E230B
:1012E00022681343236001230020226813432360F4
:1012F000FEBDA160E260EFE7042223689343236010
:1013000022680A23EDE7E6770220F1E730B5841D75
:10131000E27F0300022A06D00422C26301200022D9
:101320000533DA7730BD02680E2011681C25814331
:10133000116001211068884310605A6C186C2A40B3
:101340000D00954045600020E177E8E770B5841D09
:10135000E37F022B03D00423C363012070BD0E2161
:1013600003681C251A688A431A6001221968914390
:101370001960436C016C2B4015009D404D60E27775
:101380000022431DDA77836B934200D098470020F8
:10139000E4E7F8B51C260427426C016C32403E009D
:1013A00096400D6803681C6835420DD03C420BD056
:1013B0001A68920602D41A68BA431A60036B4E6028
:1013C000002B19D0984717E002273E00964035427F
:1013D00013D03C4211D01A68920606D40A241A6827
:1013E000A2431A600122831DDA770022431D4E605A
:1013F000DA77C36A9342E5D1F8BD082637009740F3
:101400003D42F9D03442F7D00E251C68AC431C6035
:1014100001231C009440821D4C60C363D3770022DB
:10142000431DDA77436BE5E70023F0B585B00A6822
:101430001400DC4001D105B0F0BD012514009D4031
:101440002C4000942A4200D19CE04A685F009446F8
:101450000322644622400324BC40E4430194541E0A
:10146000012C2ED88668019C2640CC68BC403443B1
:10147000846044680126AC43250064462409344056
:101480009C402C434460C568019C25408C68BC404E
:101490002C43C460022A16D107250F261D40AD003B
:1014A000AE40DC08A40004190294246A03962600C6
:1014B000039CA64334000E69AE402643029C26627C
:1014C00001E0032ADFD1BA400468019D25402A4388
:1014D000C02402606246A402224253D001252A4C55
:1014E000A027626BFF052A436263284A9C08A40078
:1014F000A4180F2202351D40AD00AA40A6689643ED
:101500000022B84214D0224F0132B84210D0214FED
:101510000132B8420CD0204F0132B84208D01F4FE0
:101520000132B84204D01E4A8218571EBA41053211
:10153000AA4067463243A2601A4A009C9668009D02
:10154000E4433543FF0201D43500254067469560EA
:10155000D668009D3543BF0201D43500254067465B
:10156000D5605668009D3543BF0301D43500254042
:10157000674655601568009E2E43FF0301D4254041
:101580002E001660013352E70010024000000140B7
:101590000004005000080050000C005000100050E3
:1015A00000E4FFAF00040140002A01D081617047D0
:1015B0008162FCE70C221A4B10B5D9680A40082A50
:1015C0002CD00C2A0CD0042A20D1186810231840E3
:1015D00043425841134B40421840134BC01810BDB2
:1015E00012488A02120F825C0902D868890F013101
:1015F000C00304D50E485043FEF792FDEFE71B6889
:10160000DB0601D50848F6E70A48F4E780205B6866
:1016100000021B045B0F01339840E0E70448DEE75B
:1016200000100240001BB70000093D0088C90008F7
:1016300000127A000024F400F0B5050085B00028FF
:1016400059D00C23B84C0268E668E7681E40802336
:101650005B0219001F40D20741D42B689B0700D5BD
:101660008AE02B68DB0628D5002E00D0E3E0236853
:101670009B0502D5EB69002B3DD080276268AB4902
:101680006B6A0A401A435B0B01333F029F40626062
:1016900061682A6A0902090A12060A436260E1685F
:1016A000A3480B061B0FC35CA24ADF40A24B176086
:1016B0001868FFF70BFB002834D12B681B0700D5F7
:1016C000F0E02B685B0700D512E12B689B0600D584
:1016D00097E1AB6A002B00D0C6E1002022E0082E83
:1016E00003D00C2E09D1002F07D023689B03B4D55B
:1016F0006B68002BB1D1012014E06A688A4213D1D3
:10170000226813432360FFF735FD00908022236891
:1017100092021342A1D1FFF72DFD009BC01A64284D
:10172000F4D9032005B0F0BDA021C9028A4205D139
:1017300080222168D2020A432260E1E721687F48C3
:101740000140216021680B400393039B7C4923687F
:101750000B402360002AD6D1FFF70CFD00908022B9
:1017600023689202134200D177E7FFF703FD009B45
:10177000C01A6428F3D9D4E72022EB68134203D0BF
:101780002168934311432160042E03D00C2E24D1F1
:10179000002F22D12268520701D5002BABD06168FF
:1017A0002A696848120201400A43092162602268DE
:1017B0008A4313432360FFF7FDFEE3685C4A1B0680
:1017C0001B0FD35C5B49D8405B4B08601868FFF780
:1017D0007DFA002800D144E7A4E7002B19D00921A5
:1017E00022688A4313432360FFF7C4FC07000422E6
:1017F0002368134207D062682B6952491B020A40D2
:10180000134363602DE7FFF7B5FCC01B0228EED938
:1018100087E70122236893432360FFF7ABFC0700AF
:1018200004222368134200D11BE7FFF7A3FCC01B6F
:101830000228F5D975E7EB69002B20D080232268B8
:101840005B0013432360FFF795FC070080222368A9
:10185000920013420DD06368344A13406A6A1343FE
:10186000636062682B6A12021B06120A13436360EC
:1018700023E7FFF77FFCC01B0228E7D951E7236865
:10188000314A13402360FFF775FC0700802223686C
:101890009200134200D110E7FFF76CFCC01B022836
:1018A000F4D93EE76A690123002A10D0226D134360
:1018B0002365FFF75FFC07000222236D134200D06F
:1018C000FFE6FFF757FCC01B0228F5D929E7226D78
:1018D0009A432265FFF74EFC07000222236D134254
:1018E00000D1EEE6FFF746FCC01B0228F5D918E749
:1018F00080230021A26B5B0500911A4204D1A26BE8
:101900001343A363012300938022104F52003B68CE
:1019100013421DD08022AB68520093422CD1226D1D
:10192000134323654DE0C04600100240FF1FFFFF38
:1019300099C90008240000202C000020FFFFFEFFB2
:10194000FFFFFBFFFFE0FFFFFFFEFFFF0070004017
:1019500080223B68520013433B60FFF70BFC019071
:1019600080223B6852001342D4D1FFF703FC019B55
:10197000C01A6428F4D9D4E6002B16D1236D6B4A23
:1019800013402365236D6A4A13402365FFF7F2FB7A
:1019900007008022236D920013421AD0FFF7EAFB62
:1019A000644BC01B9842F4D9BBE6A021C9008B420E
:1019B00018D18023216DDB000B432365236D1A436F
:1019C0002265FFF7D7FB07008022236D92001342A8
:1019D00010D0009B012B00D077E6A36B564A134032
:1019E000A36372E6236D514A13402365236D504A69
:1019F000134096E7FFF7BEFB4E4BC01B9842E3D95E
:101A00008FE6AA6901214D4B002A18D0A2680A432B
:101A1000A260626B0A4362638022196A92010A43E0
:101A20001A62FFF7A7FB07000222A368134200D047
:101A30004FE6FFF79FFBC01B0228F5D971E6A268AD
:101A40008A43A2601A6A3E490A401A62FFF792FB73
:101A500007000222A368134200D13AE6FFF78AFB8F
:101A6000C01B0228F5D95CE60C2E43D0354A022B68
:101A70002ED12368802713402360FFF77BFB0600ED
:101A8000BF0423683B421DD1296BEB6AE2680B431C
:101A90002D4980260A4013436A6BB6041343E36062
:101AA000802322685B0413432360FFF763FB050078
:101AB0002368334200D010E6FFF75CFB401B02288E
:101AC000F6D92EE6FFF756FB801B0228D9D928E667
:101AD0002368802613402360FFF74CFB0500B60403
:101AE0002368334200D1F8E5FFF744FB401B02288E
:101AF000F6D916E6012B00D1FDE58023E068EA6AFD
:101B00005B020340934200D0F5E5F0232A6B9B0370
:101B10000340934200D0EEE5C0231B0418406B6BDA
:101B2000C01A431E9841C0B2FCE5C046FFFEFFFF4D
:101B3000FFFBFFFF88130000FFFFFFEF00000140E5
:101B4000FFDFFFFFFFFFFFFEFFFF02FFF7B5041EF1
:101B5000019101D10120FEBD01255B4E019A336840
:101B60002B40934231D32268930743D4D20749D400
:101B700001253368019A2B40934209D93368AB435E
:101B80003360FFF7F7FA070033682B4200D08CE090
:101B900022684E4D530700D58FE0120706D5EA683C
:101BA00023694B49DB000A401343EB60FFF702FD5A
:101BB000EB68484A1B061B0FD35C4749D840474B8C
:101BC00008601868FFF782F8C5E73368019AAB43ED
:101BD00013433360FFF7CEFA07003368019A2B40B6
:101BE0009342C0D0FFF7C6FA3D4BC01B9842F4D9D0
:101BF0000320B0E7F0203549CB688343A068034356
:101C0000CB60B3E7314D62682B68022A18D19B0381
:101C1000A0D50321EB688B431343EB60FFF7AAFACF
:101C200063680700022B18D10C22EB681340082BC5
:101C30009ED0FFF79FFA2A4BC01B9842F4D9D7E7F2
:101C4000032A02D19B01E4D484E7012A02D15B0775
:101C5000DFD47FE79B05DCD47CE7032B0BD10C2280
:101C6000EB681340934283D0FFF784FA1C4BC01BF0
:101C70009842F4D9BCE7012B11D00C22EB68134237
:101C800000D175E7FFF776FA154BC01B9842F4D9DF
:101C9000AEE7FFF76FFA124BC01B9842A8D80C2290
:101CA000EB681340042BF4D162E7FFF763FA0C4BA7
:101CB000C01B984200D867E79AE7EB6809490B40D8
:101CC000E1680B43EB6068E700200240001002402F
:101CD000FFC7FFFF99C90008240000202C00002046
:101CE00088130000FFF8FFFF044B054ADB68054935
:101CF0005B055B0FCB5C1068D8407047001002405A
:101D00002400002091C90008044B054ADB680549FE
:101D10009B045B0FCB5C1068D840704700100240FA
:101D20002400002091C900080F2310B5032403608C
:101D30000B4BDA6822404260DA68ED342240E0243E
:101D40008260DA68E4002240C2600122DB68DB08BE
:101D500023400361034B1B6813400B6010BDC0465A
:101D600000100240002002408223F7B502681B01E8
:101D700005001A4251D080230021724C5B05A26BF2
:101D800000911A4204D1A26B1343A3630123009371
:101D900080276D4E7F0033683B4279D06B68C0214D
:101DA0001800226889030A400840904203D1AA68BB
:101DB0000A40824209D0C022190092021140914289
:101DC00003D122680120920373D4266DC022300013
:101DD000920229681040164200D06BE029680B057A
:101DE00000D594E0890611D56968C0230A009B02DA
:101DF0001A409A4207D1236854480340C020800308
:101E000001400B432360236D1A432265009B012B85
:101E100003D1A36B4E4A1340A3632B68DA0706D5A0
:101E200003204849CA6C8243E8680243CA649A079F
:101E300006D50C204349CA6C824328690243CA6410
:101E40005A0706D53F494348CA6C024068690243B5
:101E5000CA641A0706D53B493F48CA6C0240A869C4
:101E60000243CA64DA0506D536493C48CA6C0240CA
:101E7000E8690243CA645A0606D532493848CA6C32
:101E80000240686A0243CA641B0653D4002010E073
:101E900033683B433360FFF76DF9019033683B4291
:101EA00000D07BE7FFF766F9019BC01A6428F5D9DB
:101EB0000320FEBD1340834201D08B0607D4AB68DC
:101EC0001340834200D189E7090500D486E78021C9
:101ED000236D206D090301432165216D1F4A2148AF
:101EE0001A40014021652265DB0500D476E7FFF743
:101EF00041F980270600BF00236D3B4200D06DE70B
:101F0000FFF738F9184B801B9842F5D9D0E7A8683D
:101F1000C02302009B021A409A4207D123680B4E4D
:101F20003340C026B603304003432360236D1A4379
:101F3000226557E7034A0D49D36C0B40296A0B43CE
:101F4000D364A3E70010024000700040FFFFCFFF02
:101F5000FFFFFFEFFFF3FFFFFFCFFFFFFFFFFCFFE0
:101F6000FFFFFFFBFFFFF7FF88130000FFFFF3FFFA
:101F700010B5806A436E984710BD0321806A10B582
:101F8000026853688B4353601023426D13434365CB
:101F90000300012251331A70036F984710BD0000EF
:101FA000F0B51F0085B00E0001920400FFF7E2F8C3
:101FB0000A9BDD192D1AFFF7DDF8274B00901B68EF
:101FC0005B011B0D6B4303932268936833409B1B9B
:101FD00059424B4101998B4201D1002032E07B1CD8
:101FE000F3D0FFF7C7F8009BC01AA8422CD3E0211A
:101FF00023685A688A435A6082226168520091427B
:102000000CD18021A26809028A4203D08021C90034
:102010008A4203D140211A688A431A608021A26A49
:1020200089018A4206D119680C4801401960196873
:102030000A431A602300012251331A70002303203F
:102040005034237005B0F0BD039B002B02D0039BDE
:10205000013BB8E71D00B7E724000020FFDFFFFFCA
:10206000F0B585B00B0000920E001700022101228E
:102070000400FFF795FF051E05D02023626D0325A0
:102080001343636517E0134B13491868FEF748F8CC
:10209000FA239B00434303938223616880225B0001
:1020A00099420BD133002A00802120000097FFF7CE
:1020B00077FF0028E1D1280005B0F0BD039B002B7D
:1020C000F9D0039B013B039323689B681342F5D12E
:1020D000F1E7C0462400002000366E0137B5050048
:1020E000846AFFF747F82B6820251B6802002B4203
:1020F00027D1022023685968A94359605968814350
:10210000596020006421FFF7ABFF002802D0636D07
:102110001D436565A368002B06D101932368DA6827
:1021200001929B680193019B0023E3862300012217
:1021300051331A70636D002B03D0236F2000984732
:1021400037BDA36DFAE7704770477047F8B50400D4
:102150000120002C69D0636A002B67D1822261685C
:102160005200914200D0E36100232500A362513563
:102170002B78DAB2002B1AD1230050331A702D4B72
:10218000A3652D4BE3652D4B23662D4B63662D4BCD
:10219000A3662D4BE3662D4B23672D4B6367A36F1F
:1021A000002B01D12B4BA3672000A36F9847022679
:1021B0004022822084272E70216840000B683F0255
:1021C00093430B606368A2690340A068384080278E
:1021D0000343E0683F01384003432069382730401B
:1021E00003436069013E304003438020800010407B
:1021F0000343E069120C38400343206A48373840F3
:1022000080270343A06ABF01384003430B600423C7
:1022100010201A40636A034000201A434A60CB69C9
:102220000D4A1340CB6160652E70F8BD0023236119
:10223000636199E71D0A0008410A0008390A00088D
:1022400047210008492100084B210008490A0008DD
:10225000510A0008310B0008FFF7FFFFF0B504003A
:1022600085B01E000D001700FEF784FF23005133D8
:10227000009001931B78D8B2012B00D0AEE0002D66
:1022800000D17CE0002F7AD0230050331A78012A45
:1022900000D1A3E018700323019A13700023802259
:1022A000A1686365A363E786A387E3876364236408
:1022B00025632368A7861202914208D140211A683B
:1022C0008A431A6080221968D2010A431A604022A8
:1022D0001968114202D119680A431A608021E06826
:1022E0006268090188424CD1002A01D0012F07D130
:1022F0002A880235DA60E38E2563013B9BB2E386D0
:1023000002250CE0226893682B4228D0236B1988A1
:102310000233D1602363E38E013B9BB2E386E38EFD
:10232000002BEFD131002000009AFFF799FE002822
:1023300051D1A368002B06D103932368DA68039276
:102340009B680393039B0123019A137023000022CF
:1023500050331A70606D431E9841C0B20FE0FEF713
:1023600009FF009BC01AB042D9D3731CD7D02300F9
:10237000012251331A70002303205034237005B01A
:10238000F0BD002A01D0012F08D12A781A73236BDF
:1023900001332363E38E013B9BB2E38602250DE00C
:1023A00023689A682A420DD0226B12781A73236B25
:1023B00001332363E38E013B9BB2E386E38E002B64
:1023C000EED1AFE7FEF7D6FE009BC01AB042F5D3C0
:1023D000731CF3D0CBE720236365AAE70220CEE786
:1023E000F8B50300513304001878C5B201284ED166
:1023F000002937D0002A35D0260050363078012801
:1024000045D003203570187000236365A363E2860E
:1024100063642364A387E3878023A068A286216383
:1024200022681B02984208D140201368834313603E
:1024300080231068DB01034313600027A06C154B59
:1024400087630363144B0C32C362144B4363E38E04
:102450009BB2FEF71DFFB84206D01023626D1343F6
:10246000636537702800F8BD40222368196811425F
:1024700002D119680A431A60002520223570596874
:102480000A435A60022259680A435A60EAE7022561
:10249000E8E7C046711F0008DD2000087B1F000828
:1024A00080220368D205904208D0104A904205D09D
:1024B0000F4A904202D00F4A904207D170229343B4
:1024C0004A6813430C4A1340CA681343802293435B
:1024D0000A6913438A68C2620A6882620422016838
:1024E0000A43026001224261036070470004004019
:1024F0000008014000140140FFFCFFFF704770B569
:1025000004000120002C1DD0250039352B78DAB2CB
:10251000002B05D12300383320001A70FFF7EEFF9F
:1025200002232B702068211DFFF7BAFF2200012330
:1025300000203E3213703D34043A13705370937090
:1025400023702B7070BD000001000300012010B546
:1025500039310C78E2B284421CD1001808701B6833
:10256000D9681143D9608021C9058B4208D00B4935
:102570008B4205D00A498B4202D00A498B420AD1CC
:1025800007219A680A40062A03D0012219680A43E3
:102590001A60002010BD1968F9E7C0460004004029
:1025A00000080140001401407047704770477047B1
:1025B0000222036870B5DD681E69040016420CD063
:1025C00015420AD0053A1A61043202769B699B07CC
:1025D00059D0FFF7EAFF0023237604231E4211D0CF
:1025E0001D420FD00522236852421A61073222761B
:1025F0009A69C0239B0020001A424AD0FFF7D5FFFA
:102600000023237608231E420FD01D420DD009223D
:10261000236852421A610D322276DB6920009B0743
:102620003DD0FFF7C2FF0023237610231E4211D0B6
:102630001D420FD01122236852421A6119322276AC
:10264000DA69C0239B0020001A422ED0FFF7ADFFAD
:102650000023237601231E4208D01D4206D0022209
:102660002368524220001A61FEF7F6F940231E4209
:1026700008D01D4206D041222368524220001A6130
:10268000FFF795FF70BDFFF78FFF2000FFF78EFF6C
:10269000A1E7FFF789FF2000FFF788FFB0E7FFF70A
:1026A00083FF2000FFF782FFBDE7FFF77DFF2000DB
:1026B000FFF77CFFCCE7704730B5EFF310840122C1
:1026C00082F310880168124D0B682B400B6084F375
:1026D0001088EFF3108482F3108801688B689343AD
:1026E0008B6084F31088036E93420AD1EFF310815C
:1026F00083F31088102402681368A343136081F3E6
:1027000010882022031DDA6700230366836630BD2C
:10271000DFFEFFFF03001B6870B51A68202311005D
:10272000806A19401A421AD1030052331980EFF31C
:102730001084012282F31088802501688B68AB43E6
:102740008B6084F31088EFF3108182F310884023AC
:10275000026810680343136081F3108870BD0300A2
:102760008C331B689847F9E7806A10B503008833FB
:102770001B68984710BD0000F8B503001A682021B7
:102780001268806A14000C400A4234D102005A32A6
:102790001480EFF31086012282F310880568254F1C
:1027A0002C683C402C6086F31088EFF3108682F38F
:1027B00010880568AC689443AC6086F31088EFF32A
:1027C000108682F31088020020CA4237AC68FF37B7
:1027D000BC43AC6086F31088D167026E012A0AD12F
:1027E000EFF3108482F31088102501680A68AA4369
:1027F0000A6084F3108800214166026E012A13D119
:1028000002005A32118001001B6858315B68098848
:102810009BB2994200D913801388C91A0300AC33C4
:102820001B6889B29847F8BD030094331B6898472A
:10283000F9E7C046FFFEFFFF01220300806A10B5E2
:102840004266026E012A13D10200583211881B68B9
:102850004C0854805B6802329BB2994200D31380CB
:102860001388C91A0300AC331B6889B2984710BD9E
:10287000030090331B689847F9E770B5846A231DFD
:10288000E26FD96F23689B681B0613D5212A11D1EB
:102890002300002252331A80EFF31080012383F3C8
:1028A0001088C02522681368AB43136080F310883A
:1028B0002023E36723689B685B0608D5222906D19D
:1028C000230000225A3320001A80FFF7F5FE220071
:1028D00010230832D16F20000B43D36723009833B5
:1028E0001B68984770BD806A0022030010B55A33F8
:1028F0001A803E331B68984710BD70477047704779
:1029000070477047704770477047030000B5080074
:10291000002A06D140220833D96F01200A43DA6722
:1029200010E0D96F202920D10C28F3D8FDF7DAFB6D
:10293000070B0D0F1113151719F2F21B2400883322
:1029400000201A6000BD8C33FAE79033F8E7943327
:10295000F6E79833F4E79C33F2E7A033F0E7A433CB
:10296000EEE7A833ECE7B033EAE7D96F0029D1D11D
:102970000B28F8D00C28CDD1B433E1E7002906D1DB
:1029800040230830C26F1343C367012006E0031DD4
:10299000DB6F202BF4D1AC300160002070470000C9
:1029A000F8B51300C26F04000220202A04D10029C8
:1029B00001D0002B01D10120F8BD8022A068520176
:1029C000904204D12269002A01D1CA07F3D422001F
:1029D00025005032E1640026138053802122206FAD
:1029E0000835EE67E2672268B04210D0104F866368
:1029F000C762104F283207630F4F4763FEF748FC4A
:102A0000B04204D01023EB67DB18E367D3E7402222
:102A100023681A62EFF31081012383F31088226880
:102A20007F3390680343936081F310880020C3E7ED
:102A300015270008692700087B280008F7B504005F
:102A40000068AF4BC1690668856819420BD1202325
:102A5000194200D183E01E4200D180E0A36E002B1A
:102A60007CD020006EE001232F00A64A1F40324098
:102A70003A4300D173E025000835194205D0F2052C
:102A800003D50362EA6F1343EB670223194206D0B2
:102A9000002F04D00362EA6FDB181343EB670423B3
:102AA000194206D0002F04D00362EA6F023B1343A1
:102AB000EB670823194207D0202232403A4303D063
:102AC0000362EA6F1343EB6780231B01194206D0B0
:102AD000720104D503622023EA6F1343EB67EB6FA7
:102AE000002B3BD02023194206D01E4204D0A36EF7
:102AF000002B01D0200098472268EB6F4027966892
:102B000028223E4013401E4322D02000FFF7D4FD70
:102B100023689B683B4217D0EFF31081012383F3B6
:102B2000108822689368BB43936081F31088606FBC
:102B3000002809D0744B8363FEF708FC00280DD0F1
:102B4000606F836B984709E0230098331B6888E720
:102B50002300983320001B689847EE67F7BD236E6B
:102B6000012B00D0A1E01022114200D19DE01642BD
:102B700000D19AE002628168200040260D005830A2
:102B80000088354031425CD0616F0D68696889B258
:102B900000294CD081424AD220005A300180296855
:102BA00020200D0005400195014230D1EFF3108740
:102BB00083F310882568554A29681140296087F3F6
:102BC0001088EFF3108783F310882568A96899436C
:102BD000A96087F31088EFF3108C83F3108821002D
:102BE00080C9BD68B543BD608CF31088019AC86781
:102BF0002266EFF3108083F31088102221680B689F
:102C000093430B6080F31088606FFEF77FFB022315
:102C100022006366230058325A331B881188C91A70
:102C200089B22300AC3320001B68984796E78142A5
:102C300000D093E72B689B0600D48FE702236366DE
:102C4000EFE726005A363188368889B2002E00D147
:102C500084E7411A89B2002900D17FE7EFF310879A
:102C600083F3108826682A4A30681040306087F362
:102C70001088EFF3108C83F31088200080C8BE68A2
:102C80009E43BE608CF310882026C6672566A56625
:102C9000EFF3108583F31088206832320368FF3227
:102CA0009343036085F31088C8E780235B031942D0
:102CB00005D06D0203D503622300A83346E78023C5
:102CC000194203D01E4201D0E36EC8E640221142F1
:102CD00000D143E7164200D140E7EFF31080012313
:102CE00083F3108821680B6893430B6080F310888E
:102CF0002023E3670023E36623008C3326E7C046E6
:102D00000F08000020010004E7280008FFFEFFFF75
:102D1000DFFEFFFF03000B4A88331A600A4AAC301B
:102D20005A600A4A9A600A4ADA600A4A1A610A4AEA
:102D30005A610A4A9A610A4ADA610A4A1A620A4BD5
:102D400003607047FF280008FD28000803290008D9
:102D50000129000805290008072900080929000899
:102D6000FB28000885330008B7260008F8B50400E2
:102D70002569A168026829436569C3692943106808
:102D80006E4D194328400143116051686C486D4DE8
:102D90000140E06801435160A069AA4201D0216A64
:102DA00008439168684E31400143916067498A4207
:102DB00014D103218020664A0002D26C0A40022A04
:102DC00000D179E08A4200D19DE0012A00D193E050
:102DD000834200D19AE0FEF797FF63E05D498A42A3
:102DE00017D10C215A4AD26C0A40082A00D190E02F
:102DF0000AD8002A59D180221202934250D1FEF7FC
:102E000073FF031E47D061E00C2A00D179E0012056
:102E100042E051498A42EED050498A42EBD0AA4260
:102E2000F5D1C02180204A4A0901D36C00010B4032
:102E300083420AD004D8002B29D1FEF755FF28E0A1
:102E40008B42E4D18020000206E01068444BC006AB
:102E5000C0171840434BC018032362685343834292
:102E6000D5D813038342D2D30021070E060250089F
:102E700036184F410B0030003900FDF705FB3A4B87
:102E8000C2183A4B9A42C2D82368D86003E0FEF7D2
:102E900091FB0028E0D100200023A366E366F8BD83
:102EA000FEF722FF0028F6D03FE080221202934274
:102EB00024D1FEF77FFBA4E783422ED1244B284A7E
:102EC0001B68DB06DB171340264A9B1861685B0012
:102ED00048081818FDF724F90200254B103A9A42C9
:102EE00000D994E70F23020000079A4393B2400FE2
:102EF00022680343D360CEE78342DAD0FEF75AFB61
:102F0000D0E7802000028342E0D00EE0FEF7FCFE16
:102F100077E7802212029342D0D00D4B1868104BF5
:102F2000C006C01718400F4BC01861684B0818182E
:102F3000FDF7F6F802000E4B103AA3E7F369FFEF36
:102F4000FFCFFFFF00480040FFF4FFFF00380140C3
:102F50000010024000440040004C0040005000407F
:102F600000E548FF0024F40000FDFFFFFFFC0F0018
:102F7000EFFF0000436A30B51A0706D50168284CF8
:102F80004A682240446B22434A60DA0706D501684A
:102F9000244C4A682240846A22434A609A0706D534
:102FA0000168214C4A682240C46A22434A605A0799
:102FB00006D501681D4C4A682240046B22434A60D2
:102FC000DA0606D501681A4C8A682240846B2243CF
:102FD0008A609A0606D50168164C8A682240C46B3E
:102FE00022438A605A0610D50168134D4A68046C62
:102FF0002A4022434A6080225203944205D14A6803
:103000000E4C2240446C22434A601B0606D50268DF
:103010000B4953680B40816C0B43536030BDC04675
:10302000FF7FFFFFFFFFFDFFFFFFFEFFFFFFFBFF37
:10303000FFEFFFFFFFDFFFFFFFFFEFFFFFFF9FFF40
:10304000FFFFF7FFF7B504000D001700009322689B
:10305000D3692B405B1B59424B41BB4201D000203E
:1030600025E0089B0133F3D0FEF784F8009BC01ADB
:10307000089B98422CD8002B2AD023681A68520744
:10308000E5D52A004021403A8A43E0D0DA69082693
:1030900011003140019132420AD020001E62FFF738
:1030A0000BFBA319DE670023012078342370FEBDDB
:1030B0008022D96912011142C9D01A622000FFF79B
:1030C000FBFA230020220833DA67019B783423704F
:1030D0000320ECE7F0B587B00593C36F04000D0043
:1030E00017000220202B38D10138002935D0002AC2
:1030F00033D08023A2685B019A4204D12369002B5C
:1031000001D1014229D1230000260833DE672123A3
:10311000E367FEF72FF8230050331F800233039339
:103120001F808023A26804905B019A4204D1236926
:10313000B34201D12E001D00230052331B889AB2E6
:10314000002B0CD1059B402100932000049BFFF72E
:1031500079FF2023E36700280DD107B0F0BD059B60
:103160000022009380212000049BFFF76BFF0028C2
:1031700003D02023E3670320EFE72268002D0BD163
:1031800033880236DB05DB0D9362039B039A1B88B1
:10319000013B9BB21380CFE72B7801359362F4E7B4
:1031A000030073B5002504000833DD67FDF7E2FF77
:1031B000236806001B681B071DD58021264B2A00AB
:1031C0000093890303002000FFF73CFFA84212D0C0
:1031D000EFF31081012383F31088802022681368A5
:1031E0008343136081F310882023E36703200023C7
:1031F0007834237076BD250008CD1B685B0723D586
:103200008021154B0022009320003300C903FFF7F3
:1032100019FF002818D0EFF31080012282F31088E4
:1032200021680E4E0B6833400B6080F31088EFF37B
:10323000108082F3108821688B6893438B6080F341
:1032400010882023EB67D1E720230020E367EB679A
:1032500020666066CBE7C046FFFFFF01DFFEFFFF91
:1032600010B5041E01D1012010BDC36F002B0ED17B
:10327000020078321370FFF74DFD2300B0331A6857
:10328000002A01D1134A1A6020001B6898472423A2
:1032900001212268E36713688B431360636A002B84
:1032A00002D02000FFF766FE2000FFF75FFD012837
:1032B000D9D0236808495A6820000A402A215A6058
:1032C0009A688A439A60012219680A431A60FFF7D4
:1032D00067FFC9E7F50B0008FFB7FFFFF8B513005C
:1032E00002000600583241650F001380222100229F
:1032F000051D0400406F0836F267E967904213D05D
:103300001D498263C1621D493A0001631C49416342
:1033100021682431FDF7BCFF002805D010230120CF
:10332000F367DB18EB67F8BD2369002B0BD0EFF3D5
:103330001081012383F310882268FF331068034350
:10334000136081F31088EFF31080012383F310885A
:1033500021688A681A438A6080F31088EFF310812D
:1033600083F3108822683F3390680343936081F3AE
:1033700010880020D7E7C0467927000839280008C0
:103380007B2800087047031DDB6F70B50400022026
:10339000202B02D1002901D1012070BD002AFBD0D1
:1033A0008020A56801234001854204D120690028BE
:1033B00001D11942F0D12366002320006366FFF794
:1033C0008DFF0028E9D1226E012AE5D11023216862
:1033D0000B62EFF3108182F3108822681468234394
:1033E000136081F31088D8E710B50022402102480D
:1033F000FEF7DAF810BDC0460004005013B56B4666
:10340000D871002280210648DC1DFEF7CDF801238B
:10341000012221005B420348FEF720FF13BDC04696
:103420000008005038050020F8B5012205000C0006
:1034300010488021FEF7B8F8002C00D1F8BD802399
:1034400026001B029C4200D91E000B4F0121386848
:1034500000F0D4FA2900B2B20848FEF7C1FF0123F8
:103460000022012138685B4200F0F6FAAD19A41B76
:10347000E2E7C04600080050500300203805002055
:10348000F0B5160007000D0085B003AC2A207FBA06
:1034900076BA0193FFF7B2FF0421200027806680EF
:1034A000FFF7C2FF2B20FFF7A9FF019B6DBA5BBAA4
:1034B0000421200063802580FFF7B6FF2C20FFF752
:1034C0009DFF05B0F0BD000010B50122402102486B
:1034D000FEF76AF810BDC0460004005030B585B054
:1034E000FFF782FF0120FFF789FFFA200525800002
:1034F00000F0F6F9CB20FFF781FF714C2A00210084
:10350000684603F0ECF929006846FFF78DFFCF20ED
:10351000FFF774FF6119023D2A00684603F0DFF9E6
:1035200029006846FFF780FFE820FFF767FF2100CA
:103530002A006846083103F0D2F929006846FFF7EF
:1035400073FFEA20FFF75AFF6A4600230221138027
:103550006846FFF769FFED20FFF750FF594B042144
:1035600068460093FFF760FFF720FFF747FF6A46C2
:10357000554B01211B7868461370FFF755FFC0209B
:10358000FFF73CFF6A46514B01211B7868461370D8
:10359000FFF74AFFC120FFF731FF6A464C4B01217C
:1035A0001B7868461370FFF73FFFC520FFF726FF23
:1035B0006A46484B022113806846FFF735FFC72053
:1035C000FFF71CFF6A46444B01211B7868461370C5
:1035D000FFF72AFF3620FFF711FF6A463F4B012114
:1035E0001B7868461370FFF71FFF3A20FFF706FFAE
:1035F0006A463B4B01211B7868461370FFF714FFA6
:10360000B120FFF7FBFEC0236A465B011380022155
:103610006846FFF709FFB620FFF7F0FE2A0068466C
:10362000304903F05CF929006846FFF7FDFEF220FF
:10363000FFF7E4FE6A462C4B01211B7868461370A5
:10364000FFF7F2FE2620FFF7D9FE6A46274B01213D
:103650001B7868461370FFF7E7FE0C35E020FFF794
:10366000CDFE2A006846224903F039F92900684650
:10367000FFF7DAFEE120FFF7C1FE21002A006846CD
:103680000B3103F02CF929006846FFF7CDFE11201D
:10369000FFF7B4FE782000F023F92920FFF7AEFEF3
:1036A0003620FFF7ABFE6A46124B01211B786846B5
:1036B0001370FFF7B9FEFFF707FF05B030BDC04636
:1036C00090C50008640312810AC80008A1C600085A
:1036D000A3C600083E280000A5C60008A7C600082B
:1036E000A9C60008ABC60008B0C60008AFC60008EF
:1036F000B1C60008C0C60008F8B505000E001700E6
:103700001C00EF281CD8A0235B00994218D2821815
:10371000F02A15DC0A199A4212DCFFF765FE631ED7
:103720007C437A1EF318AA18310028009BB292B28B
:10373000FFF7A6FE06986100FFF776FEFFF7C4FECE
:10374000F8BD000010B5012220210248FDF72CFF32
:1037500010BDC04600040050EFF30583002B02D0DB
:10376000062040420CE0EFF31082074B002A02D003
:103770001A68022AF4D01868002802D101221A60BF
:1037800070470120EDE7C046540D002010B5EFF35F
:103790000583002B02D0062040420FE0EFF3108299
:1037A000084B002A02D01A68022AF4D01A68012AAB
:1037B00005D101321A6001F061FA002010BD01202C
:1037C000EAE7C046540D002010B5EFF30583002B47
:1037D00002D001F0A1FA10BDEFF31083002B03D04B
:1037E000034B1B68022BF4D001F090FAF3E7C046BC
:1037F000540D0020F0B51400002289B00591079205
:10380000EFF30582002A2CD1EFF31082002A03D0B7
:10381000254A1268022A24D0002822D0002C36D053
:10382000A569002D00D11835691E2F000022372907
:1038300018D86168C90715D466698032002E00D097
:10384000B208A36821680493E3689C46049B002B9C
:103850000BD06346A72B04D92469002C01D0002E7D
:1038600019D1079A100009B0F0BD6346002BF8D1BA
:103870002469002CF5D107AC059B92B20194009706
:1038800001F0CEF90128ECD000230793E9E72100ED
:1038900018278022EFE7049B019402930095059B73
:1038A00001F098F90790DCE7540D002010B501F005
:1038B000BDFC10BD10B5EFF30583002B01D0002037
:1038C00010BDEFF31083002B03D0044B1B68022BB9
:1038D000F5D00028F3D001F099FCF1E7540D002059
:1038E00010B5EFF30583002B02D00620404210BD37
:1038F000EFF31083002B03D0044B1B68022BF4D092
:10390000002801D001F02EFB0020F0E7540D00202C
:1039100013B50400EFF30583002B02D006204042CC
:1039200011E0EFF31083002B03D0084B1B68022B30
:10393000F4D001F0EBF90190211A002904DD01A86F
:1039400001F0DEFA002016BD0420E8E7540D002047
:10395000030010B5EFF30582002A01D0002010BD4E
:10396000EFF31082002A03D0094A1268022AF5D028
:10397000002B0AD09868DB68002804D01F2BEDD9F3
:1039800000F066FAEBE7002BE8D100F075FAE6E705
:10399000540D002013B50C00002827D080235B04B1
:1039A000994223D2EFF30583002B09D00023210095
:1039B00001AA019300F048FB00280ED1032416E071
:1039C000EFF31083002B03D00A4B1B68022BEDD0C2
:1039D000210000F0F6FA040006E0019B002B03D062
:1039E0008022054B52051A60200016BD0424644253
:1039F000FAE7C046540D002004ED00E070B5050064
:103A00000E00002822D080235B0499421ED2EFF3DF
:103A10000583002B0BD0280000F0CAFA3100040007
:103A2000280000F0B9FA00280ED103240FE0EFF3CC
:103A30001083002B03D0074B1B68022BEBD0310007
:103A4000280000F08EFA0400200070BD04246442B7
:103A5000FAE7C046540D002073B50C001D0011009C
:103A6000002828D080235B049C4224D2EFF30583F6
:103A7000002B02D00620404219E0EFF31083002B08
:103A800003D00E4B1B68022BF4D001220E00D14054
:103A9000164033008A430095210000F0FAF9002E09
:103AA00006D0844203D02800431E9841033876BDD7
:103AB0002042F8D0FBE70420DDE7C046540D00208B
:103AC00073B50E001500EFF30583002B13D1EFF350
:103AD0001083002B03D0244B1B68022B0BD0002833
:103AE00009D0B04207D3002D0AD0AB68EA68002B9A
:103AF00004D04F2A20D80024200076BD002AFAD115
:103B000001280DD103220021012000F0D7FB1BE08A
:103B10001A00310000F0F5FB041EECD02D6806E021
:103B2000310000F003FC041EE5D0002DF6D1290081
:103B3000200000F097FEDFE70128E9D10322009280
:103B40000022110000F089FB041ED4D0002EECD01E
:103B500000231A00190000F0FBFB0128E5D020002B
:103B600000F0A6FEC7E7C046540D002013B50C00B8
:103B7000002802D10420404223E0EFF30583002B0C
:103B80000AD0002CF6D1210001AA019400F019FE00
:103B9000012812D00320EEE7EFF31083002B03D0AF
:103BA0000B4B1B68022BECD0210000F068FD0128B4
:103BB00006D0002CEED00220DDE7019B002B01D1C6
:103BC000002016BD8022034B52051A60F8E7C0465C
:103BD000540D002004ED00E007B5002826D0EFF3D7
:103BE0000583002B09D0002301A9019300F087FC75
:103BF000012812D00320404217E0EFF31083002B7E
:103C000003D00B4B1B68022BEDD000231A001900C8
:103C100000F09EFB012807D0ECE7019B002B03D0AE
:103C20008022044B52051A6000200EBD0420E2E7FA
:103C3000540D002004ED00E0030010B5002806D06C
:103C4000EFF30583002B04D000F005FE03001800FD
:103C500010BDEFF31083002B03D0034B1B68022B26
:103C6000F2D000F0ECFDF1E7540D002073B5140024
:103C7000EFF30583002B02D00025280076BDEFF37B
:103C80001083002B03D01A4B1B68022BF4D00028A2
:103C9000F2D00029F0D0002C1DD0A368E268002BE0
:103CA00011D04F2AE8D92269002AE5D00D004543FA
:103CB0006669AE42E0D30025009500F0CEFA051EFD
:103CC000DAD024680EE0002AD6D12369002BD3D1A4
:103CD0006369002BD0D1002200F0F0FA051ECBD092
:103CE000002CEED12100280000F0BCFDC5E7C04645
:103CF000540D002013B51C00EFF30583002B04D0F6
:103D0000002818D10420404226E0EFF31083002B56
:103D100003D0144B1B68022BF2D00028F2D00029EC
:103D2000F0D00023220000F013FB012813D0002C58
:103D30000CD00220E7E70029E4D0002CE2D12300D8
:103D400001AA019400F093FB012801D00320DAE7D7
:103D5000019B002B01D1002016BD8022024B520591
:103D60001A60F8E7540D002004ED00E013B51C00C4
:103D7000EFF30583002B04D0002817D10420404224
:103D800024E0EFF31083002B03D0134B1B68022BAE
:103D9000F2D00028F2D00029F0D0220000F0EAFB97
:103DA000012812D0002C0BD00220E8E70029E5D032
:103DB000002CE3D101AA019400F003FD012801D0F9
:103DC0000320DCE7019B002B01D1002016BD8022DF
:103DD000024B52051A60F8E7540D002004ED00E094
:103DE00010B5FFF729FF10BD10B5EFF30583002BC9
:103DF00002D0062040420DE0EFF31083002B03D0E9
:103E0000064B1B68022BF4D0002804D0002100F0E0
:103E1000F0F9002010BD0420ECE7C046540D00204E
:103E2000034B0360034B0B60802313607047C04655
:103E3000AC0C0020AC0A0020034B0360034B0B606A
:103E400080235B0013607047040A002004060020F2
:103E500013B5041E01D172B6FEE720230193019B26
:103E6000202B01D072B6FEE7002308C000F0F8F85E
:103E700001232000237716BD70B5202001F070FDCE
:103E8000041E04D0002520C000F0EAF825772000A9
:103E900070BDF7B506000D001F000192002801D18A
:103EA00072B6FEE780235B04994201D372B6FEE747
:103EB000002901D172B6FEE701F0BEF9002804D155
:103EC000089B002B01D072B6FEE700F017FF3468A4
:103ED00023002B40002F14D1002B14D1089B002B62
:103EE00017D001994B1E99410906002F02D080235B
:103EF000DB041943089A2943301D01F09BF8002484
:103F000009E09D42EAD1019B002B02D02300AB4384
:103F100033600023089300F08BFF089B002B15D023
:103F2000002801D101F092FC01F046FA040083015F
:103F30000AD401F097FC346823002B40002F07D1EE
:103F4000002B07D101F09AFC2402240A2000FEBDB8
:103F50009D42F7D1019B002BF4D02300AB4333608B
:103F6000F0E770B504000D00002801D172B6FEE73D
:103F700080235B04994201D372B6FEE701F072FC24
:103F800026683300AB43236001F078FC300070BD3D
:103F900010B5FFF7E6FF10BD10B5044C0A00010094
:103FA0000023200001F0CEFB10BDC046913F000869
:103FB00010B5040001F070FC246801F071FC2000D1
:103FC00010BDF7B504000D00002801D172B6FEE760
:103FD00080235B04994201D372B6FEE703000C33E1
:103FE000019300F08BFE236820692B43002523609A
:103FF000019A2368824205D1AB43236000F018FF89
:104000002068FEBD1E00016847680A02120A1640B9
:10401000B4468026F604314204D16646002E03D110
:104020003800E5E76245FBD180267604314200D0B6
:10403000154380218904194301F06EF8F0E710B5AB
:10404000FFF7BFFF10BD000010B5044C13000A00BD
:104050000100200001F076FB10BDC0463F40000883
:104060000300083301224360C3600361002352420E
:1040700082600360704700230361704743689A6859
:104080004B608A6051609960036808610133036086
:104090007047020030B50C680832631C0AD103690E
:1040A0005A684A6091608B60596003680861013307
:1040B000036030BD130052681568A542FAD9EFE7D6
:1040C0000369416882688A6051605968814200D101
:1040D0005A60002202611A68013A1A601868704733
:1040E00010B5040001F0BEFBA46B01F0C7FB6042F9
:1040F000604110BD70B51600026C0400856B002A8B
:1041000009D10668002E12D1806801F0E3F8A6609C
:104110000135A56370BD002E0ED1406802F0DFFBB3
:104120006368226C9B18A2686360934201D20020EE
:10413000EEE723686360FAE7C06802F0D0FB226C08
:10414000E36851429B1A2268E360934202D2A3685B
:104150005B18E3600020022EDAD12B005A1E934137
:10416000ED1AD5E703001A6C080010B5002A0AD032
:10417000DC689968A418DC608C4201D31968D960A6
:10418000D96802F0ACFB10BD70B5040026004536BE
:1041900001F068FB35786DB2002D02DD636A002BFB
:1041A00013D1FF2333702600443601F067FB01F082
:1041B00059FB35786DB2002D02DD2369002B0ED13D
:1041C000FF23337001F05AFB70BD2000243000F053
:1041D00069FF002801D001F013F8013DDBE7200062
:1041E000103000F05FFF002801D001F009F8013D18
:1041F000E0E770B504000D00002801D172B6FEE7BB
:1042000001F030FB216CE36B22684B43D0185B1A42
:104210006260D2182300A060E2600020FF224433D5
:10422000A0631A705A7085420ED12369834207D069
:104230002000103000F036FF002801D001F006FB0E
:1042400001F01CFB012070BD20001030FFF708FFBB
:1042500020002430FFF704FFF2E773B51C0006AB23
:104260001D78002801D172B6FEE7002C01D172B68C
:10427000FEE7002A03D0002905D172B6FEE7002927
:1042800001D072B6FEE750230193019B502B01D061
:1042900072B6FEE7019B2300012646331E700029FB
:1042A00000D12200E0632164200001212260FFF799
:1042B000A0FF23004C3320001D7076BDF8B506002A
:1042C0000D001700002801D172B6FEE70800704308
:1042D000503001F045FB041E11D00300002246338C
:1042E0001A700300954200D0503323600121200052
:1042F000E6632564FFF77DFF23004C331F70200029
:10430000F8BD13B513000C00002801D172B6FEE70A
:10431000884201D272B6FEE702220092002211000A
:10432000FFF79BFF002800D0846316BD10B50C007A
:10433000002801D172B6FEE7884201D272B6FEE7CC
:1043400002220021FFF7BAFF002800D0846310BDCD
:10435000F0B585B004000F001E000192002801D1C5
:1043600072B6FEE7002904D1036C002B01D072B6AF
:10437000FEE7022E04D1E36B012B01D072B6FEE7FB
:1043800000F05AFF051E1BD0002501F06BFAA26B4E
:10439000E36B9A4219D2320039002000FFF7AAFEDF
:1043A000636A002B03D02000243000F07BFE00283D
:1043B00001D001F04BFA01F061FA012005B0F0BD27
:1043C000019B002BE1D072B6FEE7022EE3D0019BE9
:1043D000002B03D101F052FA0020EFE7002D02D1AB
:1043E00002A800F0D1FE01F049FA00F087FC01F0CC
:1043F00039FA2200443213785BB2013301D1002331
:1044000013702200453213785BB2013301D10023CF
:10441000137001F033FA01A902A800F0C1FE0028D0
:104420001FD101F01FFAA26BE36B9A4210D101F089
:1044300025FA20000199103000F0EAFD2000FFF776
:10444000A3FE00F0F5FC002809D101F0FFF906E019
:1044500001F014FA2000FFF797FE00F0E9FC0125B7
:1044600093E72000FFF790FE00F0E2FCB4E7F0B520
:1044700085B0040017001E000191002801D172B61A
:10448000FEE7019B002B04D1036C002B01D072B618
:10449000FEE7022E04D1E36B012B01D072B6FEE7DA
:1044A00001F0FAF9A26BE36B03909A4202D3002564
:1044B000022E19D12300453302931D7832006DB2CC
:1044C00020000199FFF716FE6B1C13D1636A002BC5
:1044D00009D02000243000F0E5FD002803D0002F93
:1044E00001D001233B600125039801F0D9F9280090
:1044F00005B0F0BD029B01356DB21D70F3E7F8B554
:1045000004000D00002801D172B6FEE7036C002BF9
:1045100001D072B6FEE70368002B04D18368002B3C
:1045200001D072B6FEE701F0B7F9A26BE36B0600AB
:104530000027934215D9210045310B7801325BB237
:10454000A2635A1C12D1636ABB4209D020002430F6
:1045500000F0A8FDB84203D0BD4201D001232B607A
:104560000127300001F09CF93800F8BD01335BB23F
:104570000B70F5E7F0B585B004000E00019200283D
:1045800001D172B6FEE7002904D1036C002B01D0E3
:1045900072B6FEE700F050FE051E1BD0002501F0AC
:1045A00061F9A76B002F1AD031002000013FFFF7FF
:1045B000D9FDA7632369002B07D02000103000F03D
:1045C00071FD002801D001F041F901F057F90120F7
:1045D00005B0F0BD019B002BE1D072B6FEE7019B58
:1045E000002B03D101F04AF90020F1E7002D02D1A0
:1045F00002A800F0C9FD01F041F900F07FFB01F0D5
:1046000031F92200443213785BB2013301D1002327
:1046100013702200453213785BB2013301D10023BD
:10462000137001F02BF901A902A800F0B9FD0028D0
:104630001AD12000FFF754FD00280FD02000019967
:10464000243000F0E5FC2000FFF79EFD00F0F0FBB9
:10465000002801D101F0FAF80125A0E72000FFF7BA
:1046600093FD00F0E5FBF7E72000FFF78DFD00F07C
:10467000DFFB2000FFF734FD0028EDD0B4E7F0B5F4
:1046800085B0041E019101D172B6FEE7056C002DC4
:1046900001D072B6FEE700F0CFFD061E20D02E003E
:1046A000012701F0DFF8A36B002B1ED0013BA363B1
:1046B0002368002B02D100F08BFEA0602369002B41
:1046C00007D02000103000F0EDFC002801D001F0F0
:1046D000BDF801F0D3F8012005B0F0BD3500DFE7EB
:1046E000019B002BFAD072B6FEE7019B002B03D191
:1046F000002D62D072B6FEE7002E02D102A800F0B3
:1047000043FD01F0BBF800F0F9FA01F0ABF822002C
:10471000443213785BB2013301D1002313702200BD
:10472000453213785BB2013301D10023137001F0DD
:10473000A5F801A902A800F033FD002825D120002A
:10474000FFF7CEFC00281AD02368002B07D101F018
:1047500089F8A06800F080FD050001F08FF82000C6
:104760000199243000F054FC2000FFF70DFD00F00B
:104770005FFB002801D101F069F83E0091E72000BD
:10478000FFF702FD00F054FBF7E72000FFF7FCFC09
:1047900000F04EFB2000FFF7A3FC0028EDD0002D19
:1047A0000DD001F05FF8616A002903D03821236B36
:1047B0001B68C91AA06800F0C3FD01F05FF8002073
:1047C0008AE7F0B585B0040016000191002801D1F8
:1047D00072B6FEE7019B002B04D1036C002B01D0C5
:1047E00072B6FEE701F058F80025A76B0390AF42C0
:1047F0001AD02300443302931D7820000199013F11
:104800006DB2FFF7AFFCA7636B1C13D12369002BBC
:1048100009D02000103000F045FC002803D0002E05
:1048200001D0012333600125039801F039F82800F5
:1048300005B0F0BD029B01356DB21D70F3E710B5F8
:10484000041E01D172B6FEE701F00CF8A46B01F072
:1048500015F8200010BD002801D172B6FEE7806B6C
:1048600070470000002370B5064ADD00AC182668CA
:10487000002E02D1A950606070BD0133082BF4D125
:10488000FAE7C046580D0020084A0023110010B571
:104890005468844205D10022DB00CA50C9184A601E
:1048A00010BD01330832082BF2D1F9E7580D002072
:1048B00010B5041E01D172B6FEE7FFF7E5FF230035
:1048C00046331B78002B02D1200001F0CBF810BD3D
:1048D00070B5040016000D0000F0C4FF2200443241
:1048E00013785BB2013301D10023137022004532EB
:1048F00013785BB2013301D10023137000F0BEFFC7
:10490000A36B002B05D1200032002900243000F0D9
:10491000B1FB2000FFF738FC70BD0000F7B50400C4
:1049200000F0A0FF2A4B2B4D1A682B4E01321A6063
:104930002F68002F41D12C601B68012B1ED1142041
:10494000784301373018FFF78BFB382FF7D1234F0F
:104950003800FFF785FB224B18000193FFF780FB1F
:104960002048FFF77DFB2048FFF77AFB1F48FFF741
:1049700077FB1F4B019A1F601E4B1A601E4A13687B
:104980000133136063641D4BE26A19688A4200D9DF
:104990001A6014235343211DF018FFF76FFB00F03A
:1049A0006DFF174B1B68002B06D02B68DA6AE36A91
:1049B0009A4201D200F04AFFF7BD114B1A68E36A30
:1049C000002ADBD12A68D26A9A42D7D82C60D5E770
:1049D000BC0D002090120020300E00201C0E002084
:1049E000080E0020EC0D0020D80D0020C00D002086
:1049F000040E0020000E0020A00D0020B40D0020A9
:104A0000B00D0020F8B50400144B154D1E68286841
:104A10000F000430FFF754FB631C07D1002F05D0B3
:104A2000296810480431FFF729FBF8BD2B683419B9
:104A30005C60A64206D90C4B186829680431FFF760
:104A400028FBF2E7094B186829680431FFF721FBBE
:104A5000074B1A68A242E8D91C60E6E7B80D0020AF
:104A600090120020C00D0020000E0020040E002037
:104A70009C0D0020074A13681968074B002903D1D1
:104A8000012252421A6070471268D268D268526896
:104A9000F8E7C046040E00209C0D002010B504006D
:104AA000543001F0A7FE2300A5331B78002B06D15C
:104AB000206B00F0D7FF200000F0D4FF10BD012BC9
:104AC000F9D0022BFAD072B6FEE7000070B5104C98
:104AD0002368002B06D10F4B1B68012BF7D900F080
:104AE000B5FEF4E700F0BEFE0B4BDB68DD68281D69
:104AF000FFF7E6FA094A1368013B13602368013B9C
:104B0000236000F0BBFE2800FFF7C8FFDFE7C046C8
:104B1000D40D0020300E0020D80D0020BC0D002048
:104B2000F7B50A9C9600320000900D00206BA5217D
:104B3000019301F0C9FA0722276B043EBF1997437E
:104B4000002D3CD0210000233431EA5CCA54002AF5
:104B500002D00133102BF8D12300002243331A7006
:104B6000089D372D00D937250026201DE562E56414
:104B70002665FFF780FA20001830FFF77CFA38230B
:104B80005B1BA36123002000A033246164624C22DC
:104B90001E6031001E71543001F096FA0A4B380045
:104BA000A3650A4B019AE365094B0099236600F05F
:104BB00009FE099B2060B34200D01C60F7BD2300B2
:104BC00034331D70CCE7C046EC3A0020543B002043
:104BD000BC3B002070B586B00B9D0C9C002D01D114
:104BE00072B6FEE7002C01D172B6FEE7A826059644
:104BF000059EA82E01D072B6FEE725632500059E0E
:104C00000226A5352E7004AD01950A9D02940095EB
:104C1000FFF786FF2000FFF781FE049806B070BD05
:104C2000F0B5070087B0900016000491059300F0DE
:104C300097FE051E03D10120404207B0F0BDA82019
:104C400000F08EFE041E14D003000022A53305637D
:104C50001A700D9B320001930C9B049902900093F3
:104C60003800059BFFF75CFF2000FFF757FE01208F
:104C7000E3E7280000F0F6FEDDE7000010B50024B1
:104C800088B007AA06A905A805940694FFF7C8F8F6
:104C9000059B13490293069B12480193079A230030
:104CA0000094FFF797FFA04213D000F0EFFB01281C
:104CB00011D172B60C4B0D4A1B685433136001229C
:104CC0000B4B52421A600B4B18600B4B1C6000F0F0
:104CD0008BFD08B010BD0130FBD172B6FEE7C046B7
:104CE000C2C60008CD4A00089012002034000020FF
:104CF0009C0D0020B00D0020B80D0020024A136862
:104D0000013313607047C046980D0020014B1868AE
:104D10007047C046B80D0020014B18687047C04668
:104D2000B80D0020F0B5374B85B01B68002B60D163
:104D3000354B1D6801351D60002D11D1334B1A68AC
:104D40001268002A01D072B6FEE7314A196810686D
:104D5000186011602F4A136801331360FFF78AFE51
:104D60002D4A2E4F01923B682D4A00240292AB42FD
:104D700036D9029B1B68DA6A14235343019AD3582D
:104D8000012B3CD8274B1B68002B00D001242000AE
:104D900005B0F0BD1B68DB68DE6873689D4226D3F2
:104DA000331D18000393FFF78BF9B36A002B03D070
:104DB00030001830FFF784F91B4BF06A1A689042F4
:104DC00000D9186014235843019B311D1818FFF7B0
:104DD00055F9029BF26A1B68DB6A9A4200D30124F0
:104DE0000A4B1A681268002AD4D101235B423B6047
:104DF000BFE70E4A0024136801331360C2E70124A1
:104E0000C0E7C046980D0020B80D0020040E002019
:104E1000000E0020A40D0020300E00209C0D00206C
:104E200090120020A80D0020B40D0020AC0D002031
:104E3000F8B52B4C2368002B01D172B6FEE700F0C9
:104E400011FD2368013B23602468002C04D000245A
:104E500000F014FD2000F8BD224B1B68002BF6D09B
:104E6000142601271DE0DB68DC682000251D1830B2
:104E7000FFF726F92800FFF723F91B4BE06A1A68B1
:104E8000904200D918607043184B2900C018FFF7F2
:104E9000F5F8174BE26A1B68DB6A9A4201D3154B9F
:104EA0001F60154B1A68002ADDD1002C01D0FFF7D6
:104EB000E1FD124D2C68002C0AD00126FFF732FFCD
:104EC000002801D00B4B1E60013C002CF6D12C6059
:104ED000084B1B68002BBAD000F0B8FC0124B7E7E0
:104EE000980D0020BC0D0020B40D0020300E0020D5
:104EF00090120020A80D0020EC0D0020AC0D002029
:104F000070B505000C00002801D172B6FEE700293B
:104F100001D172B6FEE7114B1B68002B01D072B6AF
:104F2000FEE7FFF7EBFE0E4B296818680C1981426B
:104F300009D9A14209D82C60FFF77AFF002801D1D6
:104F400000F084FC70BDA14201D8A042F3D2002140
:104F50002C60201AFFF756FDEEE7C046980D0020A2
:104F6000B80D002070B5041E02D100F06FFC70BDBA
:104F7000084B1D68002D01D072B6FEE7FFF7BEFE9C
:104F800029002000FFF73EFDFFF752FF0028ECD07C
:104F9000EDE7C046980D0020174B30B51A68174B47
:104FA000002A02D001221A6030BD142514481A606C
:104FB000026814492B0053435C58002C16D0CC18BF
:104FC000656808336D685B1865609D4201D16B6848
:104FD000636014235343C9184B68D9680A4B19609E
:104FE00002601B68094A54331360DDE7002A01D1CF
:104FF00072B6FEE7013ADDE7980D0020A80D00200B
:10500000B40D0020300E002090120020340000204B
:1050100010B50C00002801D172B6FEE7044B1968E8
:105020001831FFF736F801212000FFF7EBFC10BD27
:105030009012002070B50B001400002801D172B648
:10504000FEE70A4A1268002A01D172B6FEE7802103
:10505000074A090615681943A96111681831FFF755
:105060000DF801212000FFF7CDFC70BD980D002048
:105070009012002070B50C001500002801D172B606
:10508000FEE7074B19681831FEF7F8FF002D01D035
:105090000124644229002000FFF7B4FC70BDC04623
:1050A00090120020C36870B5DC68002C01D172B684
:1050B000FEE7250018352800FFF702F8104B1148CD
:1050C0001B68002B0DD1251D2800FEF7F9FF0E4AA5
:1050D000E36A11688B4200D91360142058430B4BCC
:1050E000C0182900FEF7CAFF094BE26A1B680020BE
:1050F000DB6A9A4202D9074B0130186070BDC04686
:10510000980D0020EC0D0020B40D0020300E002082
:1051100090120020A80D0020164A0B00126870B5EE
:10512000002A01D172B6FEE78021C468090619433E
:105130000160002C01D172B6FEE7251DFEF7C0FF0D
:105140002800FEF7BDFF0C4AE36A11688B4200D9C4
:10515000136014205843094B2900C018FEF78EFF36
:10516000074BE26A1B68DB6A9A4202D90122054BAF
:105170001A6070BD980D0020B40D0020300E002084
:1051800090120020A80D0020034B1B680360034B06
:105190001B6843607047C046A40D0020B80D002076
:1051A00070B505000C00002801D172B6FEE7002999
:1051B00001D172B6FEE700F055FB0F4B196823686A
:1051C0005A1C10D00D482E6800686A68864201D0CB
:1051D0008A420FD9881A83420AD95B1A9B18280081
:1051E0002360FFF7D1FF002400F048FB200070BDD2
:1051F000002323600124F7E7B80D0020A40D002050
:105200000122014B1A607047A80D0020002801D12F
:10521000054B1868026B0020135CA52B02D0800898
:1052200080B270470130F7E790120020014B1868F8
:105230007047C04690120020054B01201B68002BD0
:1052400004D0044B18684342584140007047C046A0
:10525000B00D0020980D0020F8B5041E27D01A4D7F
:10526000C26A2B68DB6A9A4226D28369002B04DB70
:105270002B68D96A38235B1A836114235343134E76
:1052800062699B199A4213D1271D3800FEF718FF57
:105290002B680F4ADB6A1168E3628B4200D9136006
:1052A000142253433900F018FEF7E8FE0120F8BD40
:1052B0002B68DB6AE362F9E72B68C06CDB6A984213
:1052C00080414042F3E7C04690120020300E00209B
:1052D000B40D002070B5002801D1002070BD154B21
:1052E0001C68844201D072B6FEE7236D002B01D109
:1052F00072B6FEE7E16AE26C013B23659142ECD0B5
:10530000002BEAD1251D2800FEF7DAFE3822E36CD7
:10531000D21AA261084AE36211688B4200D9136075
:1053200014205843054B2900C018FEF7A7FE0120A2
:10533000D4E7C04690120020B40D0020300E0020AB
:1053400070B5041E31D0026D002A01D172B6FEE79D
:10535000C36C8B4200D20B00E16A994225D0012A2E
:1053600023D1124A1268A24201D172B6FEE7A269A5
:10537000E362002A02DB3822D31AA36114234B43D1
:105380000B4D62695B199A420FD1261D3000FEF762
:1053900097FE084BE26A19688A4200D91A60142302
:1053A00053433100E818FEF769FE70BD90120020EB
:1053B000300E0020B40D0020044B1A681968906963
:1053C0001A683823C96A5B1A9361704790120020EB
:1053D000044B1A68002A03D019680A6D01320A6565
:1053E000186870479012002010B5040041600061F9
:1053F00091420BD8D21A836901209A4205D2074BF9
:10540000211D1868FEF745FE002010BD9A4202D209
:1054100001209942F9D2024B211DF2E7901300209E
:1054200094130020F7B500F01DFA104C2568002DEC
:1054300018D10F4F3800FEF713FE0E4E3000FEF766
:105440000FFE0D4B10211F600C4B0A201E600C4AF2
:105450000C4B0095FEF701FF2060002802D00A499E
:10546000FFF700FA00F00AFAF7BDC0468C130020DF
:10547000AC130020981300209413002090130020F8
:10548000E412002094120020C7C6000810B588B0AE
:10549000FFF7C8FF104B1B68002B17D0002407AA8A
:1054A00006A905A805940694FEF7C6FC059B0B49C2
:1054B0000293069B0A4801930223079A0093230054
:1054C000FFF788FB074B1860A04201D172B6FEE7D8
:1054D000012008B010BDC0468C130020CCC60008C7
:1054E000C955000888130020F0B5170004001A0001
:1054F00085B0002801D172B6FEE70D4D2E68301E32
:105500000FD000910197029405290CDCFFF794FE5F
:1055100000230A9A022800D01A0069462868FEF77C
:1055200017FF05B0F0BD00236946FEF7A0FFF8E7BE
:105530008C130020F0B587B00590FFF7E7FB1F4FF5
:1055400005003B68834223D800232800059A3D606C
:10555000136007B0F0BDDB68DC681A68231D180013
:1055600003920493FEF7ACFD236A200098472300C2
:10557000042228331B7813420AD0A369039AD31854
:105580009A4210D20499306863602461FEF781FD6D
:105590000B4E33681A68002ADDD10A4A116813607D
:1055A00031600123D1E7002120000B00039A009114
:1055B000FFF79AFF0028EBD172B6FEE784130020B4
:1055C0009413002090130020F0B501278BB05A4EA1
:1055D0003D0033681C68002C02D00025DB681C6885
:1055E000FFF78CFB06A8FFF7A5FF069B0390002B97
:1055F0005ED1002D49D1A0424CD3FFF719FC33688E
:10560000DB68DE68301DFEF75BFD320004212832C6
:1056100013780B4213D0B16923003000039A61184C
:10562000FFF7E2FE00280CD02B00220029003000FA
:105630000095FFF759FF002803D172B6FEE7BB4380
:1056400013703000336A98473C4B0022186806A953
:10565000FEF790FF0028BAD0069B0898002B2ADBA3
:10566000089C6369002B2DD105A8FFF763FF02009A
:1056700006980928E8D8250028352B78FAF73CFD4C
:10568000262626584452262658442D4B1B681D6852
:105690006B425D41039B2A00E11A284B1868FFF713
:1056A00017F9FFF7C5FB0028CED100F0CFF8CBE704
:1056B000FFF7BEFBC8E7079B09999847069B002B9D
:1056C000C2DBCDE7201DFEF7FBFCCDE73B432B7093
:1056D000079BA16920005918FFF786FE0028B3D068
:1056E000236A2000984704222B781342ACD0002173
:1056F000A369079A2000D21800910B00FFF7F4FE6F
:105700000028A1D172B6FEE73B432B700799A16137
:10571000002901D172B6FEE7130020005118FFF7EF
:1057200063FE91E79A0703D4200000F09BF98BE712
:10573000BB432B7088E7C046941300208C130020D5
:10574000901300201FB514001A0002230190064890
:105750005B42009302910023694600680394FEF7C0
:1057600086FE04B010BDC0468C130020002382B01A
:105770000193064B1B68013301D072B6FEE772B687
:10578000019B002BFCD002B07047C04630000020C7
:105790000B4A13681868203080F30988022080F3D0
:1057A0001488BFF36F8F3FBCAE4608BC04BC62B622
:1057B0001847C046C046C046C046C046C046C04660
:1057C0009012002010B58024031F64041C60043B69
:1057D00019600349043B1960143B40381A6010BD3E
:1057E0006D57000870470000FF22124B1204196821
:1057F00070B50A431A60FF221968002412060A4392
:10580000FA211A600C4D0D4B2C601C600C4B89006A
:105810001868FAF785FC0B4B0138186007232B60DA
:10582000094B1C60FFF7B4FFFFF7B6FBFFF79EFFC5
:10583000200070BD20ED00E010E000E018E000E086
:105840002400002014E000E0300000208022044BFF
:1058500052051A60BFF34F8FBFF36F8F7047C0467A
:1058600004ED00E072B6044A136801331360BFF31D
:105870004F8FBFF36F8F704730000020054A1368C9
:10588000002B01D172B6FEE7013B1360002B00D163
:1058900062B6704730000020EFF3108072B6704798
:1058A00080F3108870470000000000000000000036
:1058B000EFF309800E4B1A6820381060F0C04446A0
:1058C0004D4656465F46F0C008B572B6FFF764FB1A
:1058D00062B60CBC116808681030F0C8A046A94632
:1058E000B246BB4680F309882038F0C81847C04646
:1058F0009012002010B5FFF7CFFF0400FFF712FA57
:10590000002803D08022034B52051A602000FFF7C5
:10591000C7FF10BD04ED00E030B50F4B1A001B6847
:105920008342FBD354681119884203D141681000A7
:1059300009195160446819000519AB4207D107499C
:1059400009688B4203D059680919416019680160E0
:10595000904200D0106030BDD0130020CC13002046
:10596000F7B50400FFF7CAF9374A38481368002B27
:105970001DD137490733194245D0CD189D43354BCA
:10598000CB1829005B1B0025334ECB1875603160A6
:105990000726083BB3431D605D605D1A28C1136094
:1059A0002E4B1D602E4B1D6080231B060360066876
:1059B000344245D1002C43D02300072108330B4249
:1059C00001D08B430833002B3AD0254F3D689D42D0
:1059D00036D321490C6860680090984203D2206851
:1059E0008446002811D11268A24229D00A68019287
:1059F00022680A60009AD21A102A0DD9E0184107CD
:105A000006D072B6FEE7134BBDE721006446E2E71D
:105A100042606360FFF780FF104A63681168ED1A07
:105A20003D608D4200D215601E430023019D6660DB
:105A300008352360FFF7FCF96B0703D072B6FEE769
:105A40000025F7E72800FEBDCC130020C01300207E
:105A5000D813002010270000D0130020C41300200A
:105A6000C813002010B5041E1AD00E4A083C636803
:105A700012681A4201D172B6FEE72168002901D0EE
:105A800072B6FEE793436360FFF738F9064A63682E
:105A9000116820005B181360FFF73EFFFFF7C8F99D
:105AA00010BDC046C0130020C8130020014B186869
:105AB0007047C0463400002070B500260C4C0D4DD8
:105AC000641BA410A64209D1002606F055FD0A4C1D
:105AD0000A4D641BA410A64205D170BDB300EB585B
